{
  "_format": "hh-sol-artifact-1",
  "contractName": "Temp",
  "sourceName": "contracts/Temp.sol",
  "abi": [
    {
      "anonymous": false,
      "inputs": [
        {
          "indexed": false,
          "internalType": "string[]",
          "name": "_cid",
          "type": "string[]"
        }
      ],
      "name": "getUserDataE",
      "type": "event"
    },
    {
      "inputs": [
        {
          "internalType": "string",
          "name": "",
          "type": "string"
        },
        {
          "internalType": "address",
          "name": "",
          "type": "address"
        }
      ],
      "name": "accessPermissions",
      "outputs": [
        {
          "internalType": "bool",
          "name": "",
          "type": "bool"
        }
      ],
      "stateMutability": "view",
      "type": "function"
    },
    {
      "inputs": [
        {
          "internalType": "uint256",
          "name": "",
          "type": "uint256"
        }
      ],
      "name": "accounts",
      "outputs": [
        {
          "internalType": "address",
          "name": "",
          "type": "address"
        }
      ],
      "stateMutability": "view",
      "type": "function"
    },
    {
      "inputs": [
        {
          "internalType": "string",
          "name": "_cid",
          "type": "string"
        }
      ],
      "name": "getLastAccessor",
      "outputs": [
        {
          "components": [
            {
              "internalType": "address",
              "name": "user",
              "type": "address"
            },
            {
              "internalType": "string",
              "name": "time",
              "type": "string"
            },
            {
              "internalType": "uint256",
              "name": "granted",
              "type": "uint256"
            }
          ],
          "internalType": "struct Temp.Log[]",
          "name": "",
          "type": "tuple[]"
        }
      ],
      "stateMutability": "view",
      "type": "function"
    },
    {
      "inputs": [],
      "name": "getUserCid",
      "outputs": [
        {
          "internalType": "string[]",
          "name": "",
          "type": "string[]"
        }
      ],
      "stateMutability": "view",
      "type": "function"
    },
    {
      "inputs": [
        {
          "internalType": "address",
          "name": "_user",
          "type": "address"
        },
        {
          "internalType": "string",
          "name": "_time",
          "type": "string"
        }
      ],
      "name": "getUserData",
      "outputs": [
        {
          "internalType": "string[]",
          "name": "",
          "type": "string[]"
        }
      ],
      "stateMutability": "nonpayable",
      "type": "function"
    },
    {
      "inputs": [
        {
          "internalType": "address",
          "name": "_recipient",
          "type": "address"
        }
      ],
      "name": "grantAccess",
      "outputs": [],
      "stateMutability": "nonpayable",
      "type": "function"
    },
    {
      "inputs": [
        {
          "internalType": "string",
          "name": "",
          "type": "string"
        },
        {
          "internalType": "uint256",
          "name": "",
          "type": "uint256"
        }
      ],
      "name": "lastAccessedBy",
      "outputs": [
        {
          "internalType": "address",
          "name": "user",
          "type": "address"
        },
        {
          "internalType": "string",
          "name": "time",
          "type": "string"
        },
        {
          "internalType": "uint256",
          "name": "granted",
          "type": "uint256"
        }
      ],
      "stateMutability": "view",
      "type": "function"
    },
    {
      "inputs": [
        {
          "internalType": "address",
          "name": "_recipient",
          "type": "address"
        }
      ],
      "name": "revokeAccess",
      "outputs": [],
      "stateMutability": "nonpayable",
      "type": "function"
    },
    {
      "inputs": [
        {
          "internalType": "string",
          "name": "_cid",
          "type": "string"
        },
        {
          "internalType": "address",
          "name": "receiver",
          "type": "address"
        }
      ],
      "name": "setUserData",
      "outputs": [],
      "stateMutability": "nonpayable",
      "type": "function"
    },
    {
      "inputs": [
        {
          "internalType": "address",
          "name": "",
          "type": "address"
        },
        {
          "internalType": "uint256",
          "name": "",
          "type": "uint256"
        }
      ],
      "name": "userDatas",
      "outputs": [
        {
          "internalType": "string",
          "name": "",
          "type": "string"
        }
      ],
      "stateMutability": "view",
      "type": "function"
    }
  ],
  "bytecode": "0x608060405234801561001057600080fd5b50611e65806100206000396000f3fe608060405234801561001057600080fd5b506004361061009e5760003560e01c806381b412391161006657806381b412391461016d57806385e685311461019d578063b5a89065146101b9578063cc754db6146101e9578063f2a40db8146102075761009e565b80630ae5e739146100a35780633e32bd2a146100bf5780635e43e2a7146100ef578063614dde971461012157806369cc5d041461013d575b600080fd5b6100bd60048036038101906100b89190611285565b610237565b005b6100d960048036038101906100d491906112e8565b61046c565b6040516100e691906113b8565b60405180910390f35b6101096004803603810190610104919061150f565b610525565b60405161011893929190611589565b60405180910390f35b61013b600480360381019061013691906115c7565b61062a565b005b61015760048036038101906101529190611623565b610836565b60405161016491906117e6565b60405180910390f35b610187600480360381019061018291906115c7565b6109a5565b6040516101949190611823565b60405180910390f35b6101b760048036038101906101b29190611285565b6109ea565b005b6101d360048036038101906101ce919061183e565b610c1f565b6040516101e0919061195c565b60405180910390f35b6101f16110be565b6040516101fe919061195c565b60405180910390f35b610221600480360381019061021c919061197e565b6111d4565b60405161022e91906119ab565b60405180910390f35b338073ffffffffffffffffffffffffffffffffffffffff163373ffffffffffffffffffffffffffffffffffffffff16146102a6576040517f08c379a000000000000000000000000000000000000000000000000000000000815260040161029d90611a38565b60405180910390fd5b6000600160003373ffffffffffffffffffffffffffffffffffffffff1673ffffffffffffffffffffffffffffffffffffffff168152602001908152602001600020805480602002602001604051908101604052809291908181526020016000905b828210156103b357838290600052602060002001805461032690611a87565b80601f016020809104026020016040519081016040528092919081815260200182805461035290611a87565b801561039f5780601f106103745761010080835404028352916020019161039f565b820191906000526020600020905b81548152906001019060200180831161038257829003601f168201915b505050505081526020019060010190610307565b50505050905060005b815181101561046657600160028383815181106103dc576103db611ab8565b5b60200260200101516040516103f19190611b23565b908152602001604051809103902060008673ffffffffffffffffffffffffffffffffffffffff1673ffffffffffffffffffffffffffffffffffffffff16815260200190815260200160002060006101000a81548160ff021916908315150217905550808061045e90611b69565b9150506103bc565b50505050565b6001602052816000526040600020818154811061048857600080fd5b906000526020600020016000915091505080546104a490611a87565b80601f01602080910402602001604051908101604052809291908181526020018280546104d090611a87565b801561051d5780601f106104f25761010080835404028352916020019161051d565b820191906000526020600020905b81548152906001019060200180831161050057829003601f168201915b505050505081565b600382805160208101820180518482526020830160208501208183528095505050505050818154811061055757600080fd5b9060005260206000209060030201600091509150508060000160009054906101000a900473ffffffffffffffffffffffffffffffffffffffff16908060010180546105a190611a87565b80601f01602080910402602001604051908101604052809291908181526020018280546105cd90611a87565b801561061a5780601f106105ef5761010080835404028352916020019161061a565b820191906000526020600020905b8154815290600101906020018083116105fd57829003601f168201915b5050505050908060020154905083565b6000600160003373ffffffffffffffffffffffffffffffffffffffff1673ffffffffffffffffffffffffffffffffffffffff16815260200190815260200160002080549050036106d8576000339080600181540180825580915050600190039060005260206000200160009091909190916101000a81548173ffffffffffffffffffffffffffffffffffffffff021916908373ffffffffffffffffffffffffffffffffffffffff1602179055505b600160003373ffffffffffffffffffffffffffffffffffffffff1673ffffffffffffffffffffffffffffffffffffffff168152602001908152602001600020829080600181540180825580915050600190039060005260206000200160009091909190915090816107499190611d5d565b50600160028360405161075c9190611b23565b908152602001604051809103902060008373ffffffffffffffffffffffffffffffffffffffff1673ffffffffffffffffffffffffffffffffffffffff16815260200190815260200160002060006101000a81548160ff02191690831515021790555060016002836040516107d09190611b23565b908152602001604051809103902060003373ffffffffffffffffffffffffffffffffffffffff1673ffffffffffffffffffffffffffffffffffffffff16815260200190815260200160002060006101000a81548160ff0219169083151502179055505050565b60606003826040516108489190611b23565b9081526020016040518091039020805480602002602001604051908101604052809291908181526020016000905b8282101561099a57838290600052602060002090600302016040518060600160405290816000820160009054906101000a900473ffffffffffffffffffffffffffffffffffffffff1673ffffffffffffffffffffffffffffffffffffffff1673ffffffffffffffffffffffffffffffffffffffff1681526020016001820180546108ff90611a87565b80601f016020809104026020016040519081016040528092919081815260200182805461092b90611a87565b80156109785780601f1061094d57610100808354040283529160200191610978565b820191906000526020600020905b81548152906001019060200180831161095b57829003601f168201915b5050505050815260200160028201548152505081526020019060010190610876565b505050509050919050565b6002828051602081018201805184825260208301602085012081835280955050505050506020528060005260406000206000915091509054906101000a900460ff1681565b338073ffffffffffffffffffffffffffffffffffffffff163373ffffffffffffffffffffffffffffffffffffffff1614610a59576040517f08c379a0000000000000000000000000000000000000000000000000000000008152600401610a5090611a38565b60405180910390fd5b6000600160003373ffffffffffffffffffffffffffffffffffffffff1673ffffffffffffffffffffffffffffffffffffffff168152602001908152602001600020805480602002602001604051908101604052809291908181526020016000905b82821015610b66578382906000526020600020018054610ad990611a87565b80601f0160208091040260200160405190810160405280929190818152602001828054610b0590611a87565b8015610b525780601f10610b2757610100808354040283529160200191610b52565b820191906000526020600020905b815481529060010190602001808311610b3557829003601f168201915b505050505081526020019060010190610aba565b50505050905060005b8151811015610c195760006002838381518110610b8f57610b8e611ab8565b5b6020026020010151604051610ba49190611b23565b908152602001604051809103902060008673ffffffffffffffffffffffffffffffffffffffff1673ffffffffffffffffffffffffffffffffffffffff16815260200190815260200160002060006101000a81548160ff0219169083151502179055508080610c1190611b69565b915050610b6f565b50505050565b60606000600160008573ffffffffffffffffffffffffffffffffffffffff1673ffffffffffffffffffffffffffffffffffffffff168152602001908152602001600020805480602002602001604051908101604052809291908181526020016000905b82821015610d2e578382906000526020600020018054610ca190611a87565b80601f0160208091040260200160405190810160405280929190818152602001828054610ccd90611a87565b8015610d1a5780601f10610cef57610100808354040283529160200191610d1a565b820191906000526020600020905b815481529060010190602001808311610cfd57829003601f168201915b505050505081526020019060010190610c82565b5050505090506000815167ffffffffffffffff811115610d5157610d506113e4565b5b604051908082528060200260200182016040528015610d8457816020015b6060815260200190600190039081610d6f5790505b5090506000805b835181101561107a57600115156002858381518110610dad57610dac611ab8565b5b6020026020010151604051610dc29190611b23565b908152602001604051809103902060003373ffffffffffffffffffffffffffffffffffffffff1673ffffffffffffffffffffffffffffffffffffffff16815260200190815260200160002060009054906101000a900460ff16151503610f6a576003848281518110610e3757610e36611ab8565b5b6020026020010151604051610e4c9190611b23565b908152602001604051809103902060405180606001604052803373ffffffffffffffffffffffffffffffffffffffff1681526020018881526020016001815250908060018154018082558091505060019003906000526020600020906003020160009091909190915060008201518160000160006101000a81548173ffffffffffffffffffffffffffffffffffffffff021916908373ffffffffffffffffffffffffffffffffffffffff1602179055506020820151816001019081610f119190611d5d565b50604082015181600201555050838181518110610f3157610f30611ab8565b5b6020026020010151838381518110610f4c57610f4b611ab8565b5b60200260200101819052508180610f6290611b69565b925050611067565b6003848281518110610f7f57610f7e611ab8565b5b6020026020010151604051610f949190611b23565b908152602001604051809103902060405180606001604052803373ffffffffffffffffffffffffffffffffffffffff1681526020018881526020016000815250908060018154018082558091505060019003906000526020600020906003020160009091909190915060008201518160000160006101000a81548173ffffffffffffffffffffffffffffffffffffffff021916908373ffffffffffffffffffffffffffffffffffffffff16021790555060208201518160010190816110599190611d5d565b506040820151816002015550505b808061107290611b69565b915050610d8b565b507f4c003591c6694ac8d3a29d154797903e4893634aa4e9c325fffd35fcb0b3f66a826040516110aa919061195c565b60405180910390a181935050505092915050565b6060600160003373ffffffffffffffffffffffffffffffffffffffff1673ffffffffffffffffffffffffffffffffffffffff168152602001908152602001600020805480602002602001604051908101604052809291908181526020016000905b828210156111cb57838290600052602060002001805461113e90611a87565b80601f016020809104026020016040519081016040528092919081815260200182805461116a90611a87565b80156111b75780601f1061118c576101008083540402835291602001916111b7565b820191906000526020600020905b81548152906001019060200180831161119a57829003601f168201915b50505050508152602001906001019061111f565b50505050905090565b600081815481106111e457600080fd5b906000526020600020016000915054906101000a900473ffffffffffffffffffffffffffffffffffffffff1681565b6000604051905090565b600080fd5b600080fd5b600073ffffffffffffffffffffffffffffffffffffffff82169050919050565b600061125282611227565b9050919050565b61126281611247565b811461126d57600080fd5b50565b60008135905061127f81611259565b92915050565b60006020828403121561129b5761129a61121d565b5b60006112a984828501611270565b91505092915050565b6000819050919050565b6112c5816112b2565b81146112d057600080fd5b50565b6000813590506112e2816112bc565b92915050565b600080604083850312156112ff576112fe61121d565b5b600061130d85828601611270565b925050602061131e858286016112d3565b9150509250929050565b600081519050919050565b600082825260208201905092915050565b60005b83811015611362578082015181840152602081019050611347565b60008484015250505050565b6000601f19601f8301169050919050565b600061138a82611328565b6113948185611333565b93506113a4818560208601611344565b6113ad8161136e565b840191505092915050565b600060208201905081810360008301526113d2818461137f565b905092915050565b600080fd5b600080fd5b7f4e487b7100000000000000000000000000000000000000000000000000000000600052604160045260246000fd5b61141c8261136e565b810181811067ffffffffffffffff8211171561143b5761143a6113e4565b5b80604052505050565b600061144e611213565b905061145a8282611413565b919050565b600067ffffffffffffffff82111561147a576114796113e4565b5b6114838261136e565b9050602081019050919050565b82818337600083830152505050565b60006114b26114ad8461145f565b611444565b9050828152602081018484840111156114ce576114cd6113df565b5b6114d9848285611490565b509392505050565b600082601f8301126114f6576114f56113da565b5b813561150684826020860161149f565b91505092915050565b600080604083850312156115265761152561121d565b5b600083013567ffffffffffffffff81111561154457611543611222565b5b611550858286016114e1565b9250506020611561858286016112d3565b9150509250929050565b61157481611247565b82525050565b611583816112b2565b82525050565b600060608201905061159e600083018661156b565b81810360208301526115b0818561137f565b90506115bf604083018461157a565b949350505050565b600080604083850312156115de576115dd61121d565b5b600083013567ffffffffffffffff8111156115fc576115fb611222565b5b611608858286016114e1565b925050602061161985828601611270565b9150509250929050565b6000602082840312156116395761163861121d565b5b600082013567ffffffffffffffff81111561165757611656611222565b5b611663848285016114e1565b91505092915050565b600081519050919050565b600082825260208201905092915050565b6000819050602082019050919050565b6116a181611247565b82525050565b600082825260208201905092915050565b60006116c382611328565b6116cd81856116a7565b93506116dd818560208601611344565b6116e68161136e565b840191505092915050565b6116fa816112b2565b82525050565b60006060830160008301516117186000860182611698565b506020830151848203602086015261173082826116b8565b915050604083015161174560408601826116f1565b508091505092915050565b600061175c8383611700565b905092915050565b6000602082019050919050565b600061177c8261166c565b6117868185611677565b93508360208202850161179885611688565b8060005b858110156117d457848403895281516117b58582611750565b94506117c083611764565b925060208a0199505060018101905061179c565b50829750879550505050505092915050565b600060208201905081810360008301526118008184611771565b905092915050565b60008115159050919050565b61181d81611808565b82525050565b60006020820190506118386000830184611814565b92915050565b600080604083850312156118555761185461121d565b5b600061186385828601611270565b925050602083013567ffffffffffffffff81111561188457611883611222565b5b611890858286016114e1565b9150509250929050565b600081519050919050565b600082825260208201905092915050565b6000819050602082019050919050565b60006118d283836116b8565b905092915050565b6000602082019050919050565b60006118f28261189a565b6118fc81856118a5565b93508360208202850161190e856118b6565b8060005b8581101561194a578484038952815161192b85826118c6565b9450611936836118da565b925060208a01995050600181019050611912565b50829750879550505050505092915050565b6000602082019050818103600083015261197681846118e7565b905092915050565b6000602082840312156119945761199361121d565b5b60006119a2848285016112d3565b91505092915050565b60006020820190506119c0600083018461156b565b92915050565b7f4f6e6c792074686520757365722063616e2063616c6c20746869732066756e6360008201527f74696f6e00000000000000000000000000000000000000000000000000000000602082015250565b6000611a22602483611333565b9150611a2d826119c6565b604082019050919050565b60006020820190508181036000830152611a5181611a15565b9050919050565b7f4e487b7100000000000000000000000000000000000000000000000000000000600052602260045260246000fd5b60006002820490506001821680611a9f57607f821691505b602082108103611ab257611ab1611a58565b5b50919050565b7f4e487b7100000000000000000000000000000000000000000000000000000000600052603260045260246000fd5b600081905092915050565b6000611afd82611328565b611b078185611ae7565b9350611b17818560208601611344565b80840191505092915050565b6000611b2f8284611af2565b915081905092915050565b7f4e487b7100000000000000000000000000000000000000000000000000000000600052601160045260246000fd5b6000611b74826112b2565b91507fffffffffffffffffffffffffffffffffffffffffffffffffffffffffffffffff8203611ba657611ba5611b3a565b5b600182019050919050565b60008190508160005260206000209050919050565b60006020601f8301049050919050565b600082821b905092915050565b600060088302611c137fffffffffffffffffffffffffffffffffffffffffffffffffffffffffffffffff82611bd6565b611c1d8683611bd6565b95508019841693508086168417925050509392505050565b6000819050919050565b6000611c5a611c55611c50846112b2565b611c35565b6112b2565b9050919050565b6000819050919050565b611c7483611c3f565b611c88611c8082611c61565b848454611be3565b825550505050565b600090565b611c9d611c90565b611ca8818484611c6b565b505050565b5b81811015611ccc57611cc1600082611c95565b600181019050611cae565b5050565b601f821115611d1157611ce281611bb1565b611ceb84611bc6565b81016020851015611cfa578190505b611d0e611d0685611bc6565b830182611cad565b50505b505050565b600082821c905092915050565b6000611d3460001984600802611d16565b1980831691505092915050565b6000611d4d8383611d23565b9150826002028217905092915050565b611d6682611328565b67ffffffffffffffff811115611d7f57611d7e6113e4565b5b611d898254611a87565b611d94828285611cd0565b600060209050601f831160018114611dc75760008415611db5578287015190505b611dbf8582611d41565b865550611e27565b601f198416611dd586611bb1565b60005b82811015611dfd57848901518255600182019150602085019450602081019050611dd8565b86831015611e1a5784890151611e16601f891682611d23565b8355505b6001600288020188555050505b50505050505056fea26469706673582212207126d7fd060d3433d879bf6e7b1752a44fc7dc71a287ac9ba254b7686e3cfbb564736f6c63430008130033",
  "linkReferences": {},
  "deployedLinkReferences": {}
}