{
  "_format": "hh-sol-artifact-1",
  "contractName": "Temp",
  "sourceName": "contracts/Temp.sol",
  "abi": [
    {
      "anonymous": false,
      "inputs": [
        {
          "components": [
            {
              "internalType": "string",
              "name": "cid",
              "type": "string"
            },
            {
              "internalType": "string",
              "name": "operation",
              "type": "string"
            }
          ],
          "indexed": false,
          "internalType": "struct Temp.return_data[]",
          "name": "_cid",
          "type": "tuple[]"
        }
      ],
      "name": "getUserDataE",
      "type": "event"
    },
    {
      "anonymous": false,
      "inputs": [
        {
          "indexed": false,
          "internalType": "address[]",
          "name": "_users",
          "type": "address[]"
        }
      ],
      "name": "users",
      "type": "event"
    },
    {
      "inputs": [
        {
          "internalType": "string",
          "name": "",
          "type": "string"
        },
        {
          "internalType": "address",
          "name": "",
          "type": "address"
        }
      ],
      "name": "accessPermissions",
      "outputs": [
        {
          "internalType": "bool",
          "name": "valid",
          "type": "bool"
        },
        {
          "internalType": "string",
          "name": "operation",
          "type": "string"
        }
      ],
      "stateMutability": "view",
      "type": "function"
    },
    {
      "inputs": [
        {
          "internalType": "uint256",
          "name": "",
          "type": "uint256"
        }
      ],
      "name": "accounts",
      "outputs": [
        {
          "internalType": "address",
          "name": "",
          "type": "address"
        }
      ],
      "stateMutability": "view",
      "type": "function"
    },
    {
      "inputs": [
        {
          "internalType": "string",
          "name": "_cid",
          "type": "string"
        }
      ],
      "name": "deleteLog",
      "outputs": [],
      "stateMutability": "nonpayable",
      "type": "function"
    },
    {
      "inputs": [
        {
          "internalType": "string",
          "name": "_cid",
          "type": "string"
        }
      ],
      "name": "getLastAccessor",
      "outputs": [
        {
          "components": [
            {
              "internalType": "address",
              "name": "user",
              "type": "address"
            },
            {
              "internalType": "string",
              "name": "time",
              "type": "string"
            },
            {
              "internalType": "uint256",
              "name": "granted",
              "type": "uint256"
            },
            {
              "internalType": "string",
              "name": "operation",
              "type": "string"
            }
          ],
          "internalType": "struct Temp.Log[]",
          "name": "",
          "type": "tuple[]"
        }
      ],
      "stateMutability": "view",
      "type": "function"
    },
    {
      "inputs": [],
      "name": "getUserCid",
      "outputs": [
        {
          "internalType": "string[]",
          "name": "",
          "type": "string[]"
        }
      ],
      "stateMutability": "view",
      "type": "function"
    },
    {
      "inputs": [
        {
          "internalType": "address",
          "name": "_user",
          "type": "address"
        }
      ],
      "name": "getUserData",
      "outputs": [],
      "stateMutability": "nonpayable",
      "type": "function"
    },
    {
      "inputs": [],
      "name": "getUsers",
      "outputs": [
        {
          "internalType": "address[]",
          "name": "",
          "type": "address[]"
        }
      ],
      "stateMutability": "view",
      "type": "function"
    },
    {
      "inputs": [
        {
          "internalType": "address",
          "name": "_recipient",
          "type": "address"
        },
        {
          "internalType": "string",
          "name": "_operation",
          "type": "string"
        }
      ],
      "name": "grantAccess",
      "outputs": [],
      "stateMutability": "nonpayable",
      "type": "function"
    },
    {
      "inputs": [
        {
          "internalType": "string",
          "name": "",
          "type": "string"
        },
        {
          "internalType": "uint256",
          "name": "",
          "type": "uint256"
        }
      ],
      "name": "lastAccessedBy",
      "outputs": [
        {
          "internalType": "address",
          "name": "user",
          "type": "address"
        },
        {
          "internalType": "string",
          "name": "time",
          "type": "string"
        },
        {
          "internalType": "uint256",
          "name": "granted",
          "type": "uint256"
        },
        {
          "internalType": "string",
          "name": "operation",
          "type": "string"
        }
      ],
      "stateMutability": "view",
      "type": "function"
    },
    {
      "inputs": [
        {
          "internalType": "address",
          "name": "_recipient",
          "type": "address"
        }
      ],
      "name": "revokeAccess",
      "outputs": [],
      "stateMutability": "nonpayable",
      "type": "function"
    },
    {
      "inputs": [
        {
          "internalType": "string",
          "name": "_cid",
          "type": "string"
        },
        {
          "internalType": "address",
          "name": "receiver",
          "type": "address"
        },
        {
          "internalType": "string",
          "name": "_op",
          "type": "string"
        }
      ],
      "name": "setUserData",
      "outputs": [],
      "stateMutability": "nonpayable",
      "type": "function"
    },
    {
      "inputs": [
        {
          "internalType": "string",
          "name": "_cid",
          "type": "string"
        },
        {
          "internalType": "string",
          "name": "_time",
          "type": "string"
        },
        {
          "internalType": "uint256",
          "name": "_granted",
          "type": "uint256"
        },
        {
          "internalType": "string",
          "name": "_op",
          "type": "string"
        }
      ],
      "name": "updateLog",
      "outputs": [],
      "stateMutability": "nonpayable",
      "type": "function"
    },
    {
      "inputs": [
        {
          "internalType": "address",
          "name": "",
          "type": "address"
        },
        {
          "internalType": "uint256",
          "name": "",
          "type": "uint256"
        }
      ],
      "name": "userDatas",
      "outputs": [
        {
          "internalType": "string",
          "name": "",
          "type": "string"
        }
      ],
      "stateMutability": "view",
      "type": "function"
    }
  ],
  "bytecode": "0x608060405234801561001057600080fd5b50612b17806100206000396000f3fe608060405234801561001057600080fd5b50600436106100ce5760003560e01c8063a36b98201161008c578063e50fe48e11610066578063e50fe48e14610227578063f2a40db814610243578063f3d2147614610273578063ffc9896b1461028f576100ce565b8063a36b9820146101d1578063c3246486146101ed578063cc754db614610209576100ce565b8062ce8e3e146100d35780633e32bd2a146100f15780635e43e2a71461012157806369cc5d041461015457806381b412391461018457806385e68531146101b5575b600080fd5b6100db6102ab565b6040516100e89190611b42565b60405180910390f35b61010b60048036038101906101069190611bda565b610339565b6040516101189190611caa565b60405180910390f35b61013b60048036038101906101369190611e01565b6103f2565b60405161014b9493929190611e7b565b60405180910390f35b61016e60048036038101906101699190611ece565b610585565b60405161017b919061209c565b60405180910390f35b61019e600480360381019061019991906120be565b610786565b6040516101ac929190612135565b60405180910390f35b6101cf60048036038101906101ca9190612165565b610862565b005b6101eb60048036038101906101e69190612192565b610b55565b005b61020760048036038101906102029190611ece565b61101b565b005b610211611107565b60405161021e91906122df565b60405180910390f35b610241600480360381019061023c9190612301565b61121d565b005b61025d6004803603810190610258919061235d565b6114dc565b60405161026a919061238a565b60405180910390f35b61028d600480360381019061028891906123a5565b61151b565b005b6102a960048036038101906102a49190612165565b61161e565b005b6060600080548060200260200160405190810160405280929190818152602001828054801561032f57602002820191906000526020600020905b8160009054906101000a900473ffffffffffffffffffffffffffffffffffffffff1673ffffffffffffffffffffffffffffffffffffffff16815260200190600101908083116102e5575b5050505050905090565b6001602052816000526040600020818154811061035557600080fd5b906000526020600020016000915091505080546103719061248f565b80601f016020809104026020016040519081016040528092919081815260200182805461039d9061248f565b80156103ea5780601f106103bf576101008083540402835291602001916103ea565b820191906000526020600020905b8154815290600101906020018083116103cd57829003601f168201915b505050505081565b600382805160208101820180518482526020830160208501208183528095505050505050818154811061042457600080fd5b9060005260206000209060040201600091509150508060000160009054906101000a900473ffffffffffffffffffffffffffffffffffffffff169080600101805461046e9061248f565b80601f016020809104026020016040519081016040528092919081815260200182805461049a9061248f565b80156104e75780601f106104bc576101008083540402835291602001916104e7565b820191906000526020600020905b8154815290600101906020018083116104ca57829003601f168201915b5050505050908060020154908060030180546105029061248f565b80601f016020809104026020016040519081016040528092919081815260200182805461052e9061248f565b801561057b5780601f106105505761010080835404028352916020019161057b565b820191906000526020600020905b81548152906001019060200180831161055e57829003601f168201915b5050505050905084565b606060038260405161059791906124fc565b9081526020016040518091039020805480602002602001604051908101604052809291908181526020016000905b8282101561077b57838290600052602060002090600402016040518060800160405290816000820160009054906101000a900473ffffffffffffffffffffffffffffffffffffffff1673ffffffffffffffffffffffffffffffffffffffff1673ffffffffffffffffffffffffffffffffffffffff16815260200160018201805461064e9061248f565b80601f016020809104026020016040519081016040528092919081815260200182805461067a9061248f565b80156106c75780601f1061069c576101008083540402835291602001916106c7565b820191906000526020600020905b8154815290600101906020018083116106aa57829003601f168201915b50505050508152602001600282015481526020016003820180546106ea9061248f565b80601f01602080910402602001604051908101604052809291908181526020018280546107169061248f565b80156107635780601f1061073857610100808354040283529160200191610763565b820191906000526020600020905b81548152906001019060200180831161074657829003601f168201915b505050505081525050815260200190600101906105c5565b505050509050919050565b600282805160208101820180518482526020830160208501208183528095505050505050602052806000526040600020600091509150508060000160009054906101000a900460ff16908060010180546107df9061248f565b80601f016020809104026020016040519081016040528092919081815260200182805461080b9061248f565b80156108585780601f1061082d57610100808354040283529160200191610858565b820191906000526020600020905b81548152906001019060200180831161083b57829003601f168201915b5050505050905082565b338073ffffffffffffffffffffffffffffffffffffffff163373ffffffffffffffffffffffffffffffffffffffff16146108d1576040517f08c379a00000000000000000000000000000000000000000000000000000000081526004016108c890612585565b60405180910390fd5b6000600160003373ffffffffffffffffffffffffffffffffffffffff1673ffffffffffffffffffffffffffffffffffffffff168152602001908152602001600020805480602002602001604051908101604052809291908181526020016000905b828210156109de5783829060005260206000200180546109519061248f565b80601f016020809104026020016040519081016040528092919081815260200182805461097d9061248f565b80156109ca5780601f1061099f576101008083540402835291602001916109ca565b820191906000526020600020905b8154815290600101906020018083116109ad57829003601f168201915b505050505081526020019060010190610932565b50505050905060005b8151811015610b4f5760006002838381518110610a0757610a066125a5565b5b6020026020010151604051610a1c91906124fc565b908152602001604051809103902060008673ffffffffffffffffffffffffffffffffffffffff1673ffffffffffffffffffffffffffffffffffffffff16815260200190815260200160002060000160006101000a81548160ff0219169083151502179055506040518060400160405280600181526020017f30000000000000000000000000000000000000000000000000000000000000008152506002838381518110610acc57610acb6125a5565b5b6020026020010151604051610ae191906124fc565b908152602001604051809103902060008673ffffffffffffffffffffffffffffffffffffffff1673ffffffffffffffffffffffffffffffffffffffff1681526020019081526020016000206001019081610b3b9190612780565b508080610b4790612881565b9150506109e7565b50505050565b6000600160003373ffffffffffffffffffffffffffffffffffffffff1673ffffffffffffffffffffffffffffffffffffffff1681526020019081526020016000208054905003610c03576000339080600181540180825580915050600190039060005260206000200160009091909190916101000a81548173ffffffffffffffffffffffffffffffffffffffff021916908373ffffffffffffffffffffffffffffffffffffffff1602179055505b6000805b6000805490508160ff161015610ca7578373ffffffffffffffffffffffffffffffffffffffff1660008260ff1681548110610c4557610c446125a5565b5b9060005260206000200160009054906101000a900473ffffffffffffffffffffffffffffffffffffffff1673ffffffffffffffffffffffffffffffffffffffff1603610c945760019150610ca7565b8080610c9f906128d6565b915050610c07565b506000151581151503610d18576000839080600181540180825580915050600190039060005260206000200160009091909190916101000a81548173ffffffffffffffffffffffffffffffffffffffff021916908373ffffffffffffffffffffffffffffffffffffffff1602179055505b6000905060005b600160003373ffffffffffffffffffffffffffffffffffffffff1673ffffffffffffffffffffffffffffffffffffffff168152602001908152602001600020805490508160ff161015610e08578480519060200120600160003373ffffffffffffffffffffffffffffffffffffffff1673ffffffffffffffffffffffffffffffffffffffff1681526020019081526020016000208260ff1681548110610dc857610dc76125a5565b5b90600052602060002001604051610ddf91906129a2565b604051809103902003610df55760019150610e08565b8080610e00906128d6565b915050610d1f565b506000151581151503610e8857600160003373ffffffffffffffffffffffffffffffffffffffff1673ffffffffffffffffffffffffffffffffffffffff16815260200190815260200160002084908060018154018082558091505060019003906000526020600020016000909190919091509081610e869190612780565b505b604051806040016040528060011515815260200183815250600285604051610eb091906124fc565b908152602001604051809103902060008573ffffffffffffffffffffffffffffffffffffffff1673ffffffffffffffffffffffffffffffffffffffff16815260200190815260200160002060008201518160000160006101000a81548160ff0219169083151502179055506020820151816001019081610f309190612780565b5090505060405180604001604052806001151581526020016040518060400160405280600181526020017f3300000000000000000000000000000000000000000000000000000000000000815250815250600285604051610f9191906124fc565b908152602001604051809103902060003373ffffffffffffffffffffffffffffffffffffffff1673ffffffffffffffffffffffffffffffffffffffff16815260200190815260200160002060008201518160000160006101000a81548160ff02191690831515021790555060208201518160010190816110119190612780565b5090505050505050565b60005b6000805490508160ff1610156111035760028260405161103e91906124fc565b90815260200160405180910390206000808360ff1681548110611064576110636125a5565b5b9060005260206000200160009054906101000a900473ffffffffffffffffffffffffffffffffffffffff1673ffffffffffffffffffffffffffffffffffffffff1673ffffffffffffffffffffffffffffffffffffffff168152602001908152602001600020600080820160006101000a81549060ff02191690556001820160006110ee91906119db565b505080806110fb906128d6565b91505061101e565b5050565b6060600160003373ffffffffffffffffffffffffffffffffffffffff1673ffffffffffffffffffffffffffffffffffffffff168152602001908152602001600020805480602002602001604051908101604052809291908181526020016000905b828210156112145783829060005260206000200180546111879061248f565b80601f01602080910402602001604051908101604052809291908181526020018280546111b39061248f565b80156112005780601f106111d557610100808354040283529160200191611200565b820191906000526020600020905b8154815290600101906020018083116111e357829003601f168201915b505050505081526020019060010190611168565b50505050905090565b338073ffffffffffffffffffffffffffffffffffffffff163373ffffffffffffffffffffffffffffffffffffffff161461128c576040517f08c379a000000000000000000000000000000000000000000000000000000000815260040161128390612585565b60405180910390fd5b6000600160003373ffffffffffffffffffffffffffffffffffffffff1673ffffffffffffffffffffffffffffffffffffffff168152602001908152602001600020805480602002602001604051908101604052809291908181526020016000905b8282101561139957838290600052602060002001805461130c9061248f565b80601f01602080910402602001604051908101604052809291908181526020018280546113389061248f565b80156113855780601f1061135a57610100808354040283529160200191611385565b820191906000526020600020905b81548152906001019060200180831161136857829003601f168201915b5050505050815260200190600101906112ed565b50505050905060005b81518110156114d557600160028383815181106113c2576113c16125a5565b5b60200260200101516040516113d791906124fc565b908152602001604051809103902060008773ffffffffffffffffffffffffffffffffffffffff1673ffffffffffffffffffffffffffffffffffffffff16815260200190815260200160002060000160006101000a81548160ff021916908315150217905550836002838381518110611452576114516125a5565b5b602002602001015160405161146791906124fc565b908152602001604051809103902060008773ffffffffffffffffffffffffffffffffffffffff1673ffffffffffffffffffffffffffffffffffffffff16815260200190815260200160002060010190816114c19190612780565b5080806114cd90612881565b9150506113a2565b5050505050565b600081815481106114ec57600080fd5b906000526020600020016000915054906101000a900473ffffffffffffffffffffffffffffffffffffffff1681565b60038460405161152b91906124fc565b908152602001604051809103902060405180608001604052803373ffffffffffffffffffffffffffffffffffffffff16815260200185815260200184815260200183815250908060018154018082558091505060019003906000526020600020906004020160009091909190915060008201518160000160006101000a81548173ffffffffffffffffffffffffffffffffffffffff021916908373ffffffffffffffffffffffffffffffffffffffff16021790555060208201518160010190816115f59190612780565b506040820151816002015560608201518160030190816116159190612780565b50505050505050565b6000600160008373ffffffffffffffffffffffffffffffffffffffff1673ffffffffffffffffffffffffffffffffffffffff168152602001908152602001600020805480602002602001604051908101604052809291908181526020016000905b8282101561172b57838290600052602060002001805461169e9061248f565b80601f01602080910402602001604051908101604052809291908181526020018280546116ca9061248f565b80156117175780601f106116ec57610100808354040283529160200191611717565b820191906000526020600020905b8154815290600101906020018083116116fa57829003601f168201915b50505050508152602001906001019061167f565b5050505090506000815167ffffffffffffffff81111561174e5761174d611cd6565b5b60405190808252806020026020018201604052801561178757816020015b611774611a1b565b81526020019060019003908161176c5790505b5090506000805b835181101561199d576001151560028583815181106117b0576117af6125a5565b5b60200260200101516040516117c591906124fc565b908152602001604051809103902060003373ffffffffffffffffffffffffffffffffffffffff1673ffffffffffffffffffffffffffffffffffffffff16815260200190815260200160002060000160009054906101000a900460ff1615150361198a576000600285838151811061183f5761183e6125a5565b5b602002602001015160405161185491906124fc565b908152602001604051809103902060003373ffffffffffffffffffffffffffffffffffffffff1673ffffffffffffffffffffffffffffffffffffffff16815260200190815260200160002060010180546118ad9061248f565b80601f01602080910402602001604051908101604052809291908181526020018280546118d99061248f565b80156119265780601f106118fb57610100808354040283529160200191611926565b820191906000526020600020905b81548152906001019060200180831161190957829003601f168201915b50505050509050604051806040016040528086848151811061194b5761194a6125a5565b5b602002602001015181526020018281525084848151811061196f5761196e6125a5565b5b6020026020010181905250828061198590612881565b935050505b808061199590612881565b91505061178e565b507f24db20584389b874b05b35c19ae4a9a839ae661d043a1943f0c7ebfbb23aa5ec826040516119cd9190612abf565b60405180910390a150505050565b5080546119e79061248f565b6000825580601f106119f95750611a18565b601f016020900490600052602060002090810190611a179190611a35565b5b50565b604051806040016040528060608152602001606081525090565b5b80821115611a4e576000816000905550600101611a36565b5090565b600081519050919050565b600082825260208201905092915050565b6000819050602082019050919050565b600073ffffffffffffffffffffffffffffffffffffffff82169050919050565b6000611aa982611a7e565b9050919050565b611ab981611a9e565b82525050565b6000611acb8383611ab0565b60208301905092915050565b6000602082019050919050565b6000611aef82611a52565b611af98185611a5d565b9350611b0483611a6e565b8060005b83811015611b35578151611b1c8882611abf565b9750611b2783611ad7565b925050600181019050611b08565b5085935050505092915050565b60006020820190508181036000830152611b5c8184611ae4565b905092915050565b6000604051905090565b600080fd5b600080fd5b611b8181611a9e565b8114611b8c57600080fd5b50565b600081359050611b9e81611b78565b92915050565b6000819050919050565b611bb781611ba4565b8114611bc257600080fd5b50565b600081359050611bd481611bae565b92915050565b60008060408385031215611bf157611bf0611b6e565b5b6000611bff85828601611b8f565b9250506020611c1085828601611bc5565b9150509250929050565b600081519050919050565b600082825260208201905092915050565b60005b83811015611c54578082015181840152602081019050611c39565b60008484015250505050565b6000601f19601f8301169050919050565b6000611c7c82611c1a565b611c868185611c25565b9350611c96818560208601611c36565b611c9f81611c60565b840191505092915050565b60006020820190508181036000830152611cc48184611c71565b905092915050565b600080fd5b600080fd5b7f4e487b7100000000000000000000000000000000000000000000000000000000600052604160045260246000fd5b611d0e82611c60565b810181811067ffffffffffffffff82111715611d2d57611d2c611cd6565b5b80604052505050565b6000611d40611b64565b9050611d4c8282611d05565b919050565b600067ffffffffffffffff821115611d6c57611d6b611cd6565b5b611d7582611c60565b9050602081019050919050565b82818337600083830152505050565b6000611da4611d9f84611d51565b611d36565b905082815260208101848484011115611dc057611dbf611cd1565b5b611dcb848285611d82565b509392505050565b600082601f830112611de857611de7611ccc565b5b8135611df8848260208601611d91565b91505092915050565b60008060408385031215611e1857611e17611b6e565b5b600083013567ffffffffffffffff811115611e3657611e35611b73565b5b611e4285828601611dd3565b9250506020611e5385828601611bc5565b9150509250929050565b611e6681611a9e565b82525050565b611e7581611ba4565b82525050565b6000608082019050611e906000830187611e5d565b8181036020830152611ea28186611c71565b9050611eb16040830185611e6c565b8181036060830152611ec38184611c71565b905095945050505050565b600060208284031215611ee457611ee3611b6e565b5b600082013567ffffffffffffffff811115611f0257611f01611b73565b5b611f0e84828501611dd3565b91505092915050565b600081519050919050565b600082825260208201905092915050565b6000819050602082019050919050565b600082825260208201905092915050565b6000611f5f82611c1a565b611f698185611f43565b9350611f79818560208601611c36565b611f8281611c60565b840191505092915050565b611f9681611ba4565b82525050565b6000608083016000830151611fb46000860182611ab0565b5060208301518482036020860152611fcc8282611f54565b9150506040830151611fe16040860182611f8d565b5060608301518482036060860152611ff98282611f54565b9150508091505092915050565b60006120128383611f9c565b905092915050565b6000602082019050919050565b600061203282611f17565b61203c8185611f22565b93508360208202850161204e85611f33565b8060005b8581101561208a578484038952815161206b8582612006565b94506120768361201a565b925060208a01995050600181019050612052565b50829750879550505050505092915050565b600060208201905081810360008301526120b68184612027565b905092915050565b600080604083850312156120d5576120d4611b6e565b5b600083013567ffffffffffffffff8111156120f3576120f2611b73565b5b6120ff85828601611dd3565b925050602061211085828601611b8f565b9150509250929050565b60008115159050919050565b61212f8161211a565b82525050565b600060408201905061214a6000830185612126565b818103602083015261215c8184611c71565b90509392505050565b60006020828403121561217b5761217a611b6e565b5b600061218984828501611b8f565b91505092915050565b6000806000606084860312156121ab576121aa611b6e565b5b600084013567ffffffffffffffff8111156121c9576121c8611b73565b5b6121d586828701611dd3565b93505060206121e686828701611b8f565b925050604084013567ffffffffffffffff81111561220757612206611b73565b5b61221386828701611dd3565b9150509250925092565b600081519050919050565b600082825260208201905092915050565b6000819050602082019050919050565b60006122558383611f54565b905092915050565b6000602082019050919050565b60006122758261221d565b61227f8185612228565b93508360208202850161229185612239565b8060005b858110156122cd57848403895281516122ae8582612249565b94506122b98361225d565b925060208a01995050600181019050612295565b50829750879550505050505092915050565b600060208201905081810360008301526122f9818461226a565b905092915050565b6000806040838503121561231857612317611b6e565b5b600061232685828601611b8f565b925050602083013567ffffffffffffffff81111561234757612346611b73565b5b61235385828601611dd3565b9150509250929050565b60006020828403121561237357612372611b6e565b5b600061238184828501611bc5565b91505092915050565b600060208201905061239f6000830184611e5d565b92915050565b600080600080608085870312156123bf576123be611b6e565b5b600085013567ffffffffffffffff8111156123dd576123dc611b73565b5b6123e987828801611dd3565b945050602085013567ffffffffffffffff81111561240a57612409611b73565b5b61241687828801611dd3565b935050604061242787828801611bc5565b925050606085013567ffffffffffffffff81111561244857612447611b73565b5b61245487828801611dd3565b91505092959194509250565b7f4e487b7100000000000000000000000000000000000000000000000000000000600052602260045260246000fd5b600060028204905060018216806124a757607f821691505b6020821081036124ba576124b9612460565b5b50919050565b600081905092915050565b60006124d682611c1a565b6124e081856124c0565b93506124f0818560208601611c36565b80840191505092915050565b600061250882846124cb565b915081905092915050565b7f4f6e6c792074686520757365722063616e2063616c6c20746869732066756e6360008201527f74696f6e00000000000000000000000000000000000000000000000000000000602082015250565b600061256f602483611c25565b915061257a82612513565b604082019050919050565b6000602082019050818103600083015261259e81612562565b9050919050565b7f4e487b7100000000000000000000000000000000000000000000000000000000600052603260045260246000fd5b60008190508160005260206000209050919050565b60006020601f8301049050919050565b600082821b905092915050565b6000600883026126367fffffffffffffffffffffffffffffffffffffffffffffffffffffffffffffffff826125f9565b61264086836125f9565b95508019841693508086168417925050509392505050565b6000819050919050565b600061267d61267861267384611ba4565b612658565b611ba4565b9050919050565b6000819050919050565b61269783612662565b6126ab6126a382612684565b848454612606565b825550505050565b600090565b6126c06126b3565b6126cb81848461268e565b505050565b5b818110156126ef576126e46000826126b8565b6001810190506126d1565b5050565b601f82111561273457612705816125d4565b61270e846125e9565b8101602085101561271d578190505b612731612729856125e9565b8301826126d0565b50505b505050565b600082821c905092915050565b600061275760001984600802612739565b1980831691505092915050565b60006127708383612746565b9150826002028217905092915050565b61278982611c1a565b67ffffffffffffffff8111156127a2576127a1611cd6565b5b6127ac825461248f565b6127b78282856126f3565b600060209050601f8311600181146127ea57600084156127d8578287015190505b6127e28582612764565b86555061284a565b601f1984166127f8866125d4565b60005b82811015612820578489015182556001820191506020850194506020810190506127fb565b8683101561283d5784890151612839601f891682612746565b8355505b6001600288020188555050505b505050505050565b7f4e487b7100000000000000000000000000000000000000000000000000000000600052601160045260246000fd5b600061288c82611ba4565b91507fffffffffffffffffffffffffffffffffffffffffffffffffffffffffffffffff82036128be576128bd612852565b5b600182019050919050565b600060ff82169050919050565b60006128e1826128c9565b915060ff82036128f4576128f3612852565b5b600182019050919050565b600081905092915050565b60008190508160005260206000209050919050565b6000815461292c8161248f565b61293681866128ff565b94506001821660008114612951576001811461296657612999565b60ff1983168652811515820286019350612999565b61296f8561290a565b60005b8381101561299157815481890152600182019150602081019050612972565b838801955050505b50505092915050565b60006129ae828461291f565b915081905092915050565b600081519050919050565b600082825260208201905092915050565b6000819050602082019050919050565b60006040830160008301518482036000860152612a028282611f54565b91505060208301518482036020860152612a1c8282611f54565b9150508091505092915050565b6000612a3583836129e5565b905092915050565b6000602082019050919050565b6000612a55826129b9565b612a5f81856129c4565b935083602082028501612a71856129d5565b8060005b85811015612aad5784840389528151612a8e8582612a29565b9450612a9983612a3d565b925060208a01995050600181019050612a75565b50829750879550505050505092915050565b60006020820190508181036000830152612ad98184612a4a565b90509291505056fea2646970667358221220951f43aabfb108913028374b86a326081bbd4c483b5c952ac1f69fc26ea4f28864736f6c63430008130033",
  "linkReferences": {},
  "deployedLinkReferences": {}
}